{
  "contractName": "PillowChecking",
  "abi": [
    {
      "inputs": [],
      "stateMutability": "nonpayable",
      "type": "constructor"
    },
    {
      "inputs": [
        {
          "internalType": "uint256",
          "name": "",
          "type": "uint256"
        }
      ],
      "name": "accountAddresses",
      "outputs": [
        {
          "internalType": "address",
          "name": "",
          "type": "address"
        }
      ],
      "stateMutability": "view",
      "type": "function",
      "constant": true
    },
    {
      "inputs": [],
      "name": "setThisAddress",
      "outputs": [],
      "stateMutability": "nonpayable",
      "type": "function"
    },
    {
      "inputs": [],
      "name": "getThisAddress",
      "outputs": [
        {
          "internalType": "address",
          "name": "",
          "type": "address"
        }
      ],
      "stateMutability": "view",
      "type": "function",
      "constant": true
    },
    {
      "inputs": [],
      "name": "getGreeting",
      "outputs": [
        {
          "internalType": "string",
          "name": "",
          "type": "string"
        }
      ],
      "stateMutability": "view",
      "type": "function",
      "constant": true
    },
    {
      "inputs": [
        {
          "internalType": "string",
          "name": "theGreeting",
          "type": "string"
        }
      ],
      "name": "setGreeting",
      "outputs": [],
      "stateMutability": "nonpayable",
      "type": "function"
    },
    {
      "inputs": [
        {
          "internalType": "address",
          "name": "_address",
          "type": "address"
        }
      ],
      "name": "setPillowSavingsAddress",
      "outputs": [],
      "stateMutability": "nonpayable",
      "type": "function"
    },
    {
      "inputs": [],
      "name": "getAddress",
      "outputs": [
        {
          "internalType": "address",
          "name": "",
          "type": "address"
        }
      ],
      "stateMutability": "view",
      "type": "function",
      "constant": true
    },
    {
      "inputs": [],
      "name": "getValue",
      "outputs": [
        {
          "internalType": "uint256",
          "name": "",
          "type": "uint256"
        }
      ],
      "stateMutability": "pure",
      "type": "function",
      "constant": true
    },
    {
      "inputs": [
        {
          "internalType": "uint256",
          "name": "_savingsGoal",
          "type": "uint256"
        }
      ],
      "name": "createAccount",
      "outputs": [],
      "stateMutability": "nonpayable",
      "type": "function"
    },
    {
      "inputs": [],
      "name": "deposit",
      "outputs": [],
      "stateMutability": "payable",
      "type": "function",
      "payable": true
    },
    {
      "inputs": [],
      "name": "balanceFromChecking",
      "outputs": [
        {
          "internalType": "uint256",
          "name": "",
          "type": "uint256"
        }
      ],
      "stateMutability": "view",
      "type": "function",
      "constant": true
    },
    {
      "inputs": [
        {
          "internalType": "address",
          "name": "_savingsAddr",
          "type": "address"
        }
      ],
      "name": "balanceFromSavings",
      "outputs": [
        {
          "internalType": "uint256",
          "name": "",
          "type": "uint256"
        }
      ],
      "stateMutability": "view",
      "type": "function",
      "constant": true
    }
  ],
  "bytecode": "0x60806040523480156200001157600080fd5b506040518060400160405280600581526020017f68656c6c6f000000000000000000000000000000000000000000000000000000815250600690805190602001906200005f92919062000066565b506200017b565b828054620000749062000145565b90600052602060002090601f016020900481019282620000985760008555620000e4565b82601f10620000b357805160ff1916838001178555620000e4565b82800160010185558215620000e4579182015b82811115620000e3578251825591602001919060010190620000c6565b5b509050620000f39190620000f7565b5090565b5b8082111562000112576000816000905550600101620000f8565b5090565b7f4e487b7100000000000000000000000000000000000000000000000000000000600052602260045260246000fd5b600060028204905060018216806200015e57607f821691505b6020821081141562000175576200017462000116565b5b50919050565b610e38806200018b6000396000f3fe6080604052600436106100a75760003560e01c80639c3d6ceb116100645780639c3d6ceb146101be578063a4136862146101e7578063cab1391514610210578063d0e30db014610239578063d395382214610243578063fe50cc721461026e576100a7565b8063186c412c146100ac5780631bff58d8146100d7578063209652551461011457806338cc48311461013f5780635a6f546d1461016a5780636cbaddcf14610181575b600080fd5b3480156100b857600080fd5b506100c1610299565b6040516100ce91906108cf565b60405180910390f35b3480156100e357600080fd5b506100fe60048036038101906100f9919061092a565b610335565b60405161010b9190610998565b60405180910390f35b34801561012057600080fd5b50610129610374565b60405161013691906108cf565b60405180910390f35b34801561014b57600080fd5b50610154610382565b6040516101619190610998565b60405180910390f35b34801561017657600080fd5b5061017f61038f565b005b34801561018d57600080fd5b506101a860048036038101906101a391906109df565b6103d2565b6040516101b591906108cf565b60405180910390f35b3480156101ca57600080fd5b506101e560048036038101906101e091906109df565b6104b1565b005b3480156101f357600080fd5b5061020e60048036038101906102099190610b52565b6104f5565b005b34801561021c57600080fd5b506102376004803603810190610232919061092a565b61050f565b005b610241610661565b005b34801561024f57600080fd5b50610258610757565b6040516102659190610998565b60405180910390f35b34801561027a57600080fd5b50610283610781565b6040516102909190610c23565b60405180910390f35b6000600160003373ffffffffffffffffffffffffffffffffffffffff1673ffffffffffffffffffffffffffffffffffffffff16815260200190815260200160002060009054906101000a900460ff166102f157600080fd5b6000803373ffffffffffffffffffffffffffffffffffffffff1673ffffffffffffffffffffffffffffffffffffffff16815260200190815260200160002054905090565b6002818154811061034557600080fd5b906000526020600020016000915054906101000a900473ffffffffffffffffffffffffffffffffffffffff1681565b600080600590508091505090565b6000803090508091505090565b33600460006101000a81548173ffffffffffffffffffffffffffffffffffffffff021916908373ffffffffffffffffffffffffffffffffffffffff160217905550565b6000600160003373ffffffffffffffffffffffffffffffffffffffff1673ffffffffffffffffffffffffffffffffffffffff16815260200190815260200160002060009054906101000a900460ff1661042a57600080fd5b60008290508073ffffffffffffffffffffffffffffffffffffffff166327c9a2f4336040518263ffffffff1660e01b81526004016104689190610998565b602060405180830381865afa158015610485573d6000803e3d6000fd5b505050506040513d601f19601f820116820180604052508101906104a99190610c5a565b915050919050565b80600360006101000a81548173ffffffffffffffffffffffffffffffffffffffff021916908373ffffffffffffffffffffffffffffffffffffffff16021790555050565b806006908051906020019061050b929190610813565b5050565b60018060003373ffffffffffffffffffffffffffffffffffffffff1673ffffffffffffffffffffffffffffffffffffffff16815260200190815260200160002060006101000a81548160ff0219169083151502179055506002339080600181540180825580915050600190039060005260206000200160009091909190916101000a81548173ffffffffffffffffffffffffffffffffffffffff021916908373ffffffffffffffffffffffffffffffffffffffff1602179055506000600360009054906101000a900473ffffffffffffffffffffffffffffffffffffffff1690508073ffffffffffffffffffffffffffffffffffffffff16635756d26e33846040518363ffffffff1660e01b815260040161062b929190610c87565b600060405180830381600087803b15801561064557600080fd5b505af1158015610659573d6000803e3d6000fd5b505050505050565b600160003373ffffffffffffffffffffffffffffffffffffffff1673ffffffffffffffffffffffffffffffffffffffff16815260200190815260200160002060009054906101000a900460ff166106b757600080fd5b65befe6f672000341015610700576040517f08c379a00000000000000000000000000000000000000000000000000000000081526004016106f790610cfc565b60405180910390fd5b346000803373ffffffffffffffffffffffffffffffffffffffff1673ffffffffffffffffffffffffffffffffffffffff168152602001908152602001600020600082825461074e9190610d4b565b92505081905550565b6000600460009054906101000a900473ffffffffffffffffffffffffffffffffffffffff16905090565b60606006805461079090610dd0565b80601f01602080910402602001604051908101604052809291908181526020018280546107bc90610dd0565b80156108095780601f106107de57610100808354040283529160200191610809565b820191906000526020600020905b8154815290600101906020018083116107ec57829003601f168201915b5050505050905090565b82805461081f90610dd0565b90600052602060002090601f0160209004810192826108415760008555610888565b82601f1061085a57805160ff1916838001178555610888565b82800160010185558215610888579182015b8281111561088757825182559160200191906001019061086c565b5b5090506108959190610899565b5090565b5b808211156108b257600081600090555060010161089a565b5090565b6000819050919050565b6108c9816108b6565b82525050565b60006020820190506108e460008301846108c0565b92915050565b6000604051905090565b600080fd5b600080fd5b610907816108b6565b811461091257600080fd5b50565b600081359050610924816108fe565b92915050565b6000602082840312156109405761093f6108f4565b5b600061094e84828501610915565b91505092915050565b600073ffffffffffffffffffffffffffffffffffffffff82169050919050565b600061098282610957565b9050919050565b61099281610977565b82525050565b60006020820190506109ad6000830184610989565b92915050565b6109bc81610977565b81146109c757600080fd5b50565b6000813590506109d9816109b3565b92915050565b6000602082840312156109f5576109f46108f4565b5b6000610a03848285016109ca565b91505092915050565b600080fd5b600080fd5b6000601f19601f8301169050919050565b7f4e487b7100000000000000000000000000000000000000000000000000000000600052604160045260246000fd5b610a5f82610a16565b810181811067ffffffffffffffff82111715610a7e57610a7d610a27565b5b80604052505050565b6000610a916108ea565b9050610a9d8282610a56565b919050565b600067ffffffffffffffff821115610abd57610abc610a27565b5b610ac682610a16565b9050602081019050919050565b82818337600083830152505050565b6000610af5610af084610aa2565b610a87565b905082815260208101848484011115610b1157610b10610a11565b5b610b1c848285610ad3565b509392505050565b600082601f830112610b3957610b38610a0c565b5b8135610b49848260208601610ae2565b91505092915050565b600060208284031215610b6857610b676108f4565b5b600082013567ffffffffffffffff811115610b8657610b856108f9565b5b610b9284828501610b24565b91505092915050565b600081519050919050565b600082825260208201905092915050565b60005b83811015610bd5578082015181840152602081019050610bba565b83811115610be4576000848401525b50505050565b6000610bf582610b9b565b610bff8185610ba6565b9350610c0f818560208601610bb7565b610c1881610a16565b840191505092915050565b60006020820190508181036000830152610c3d8184610bea565b905092915050565b600081519050610c54816108fe565b92915050565b600060208284031215610c7057610c6f6108f4565b5b6000610c7e84828501610c45565b91505092915050565b6000604082019050610c9c6000830185610989565b610ca960208301846108c0565b9392505050565b7f4d7573742073656e64206174206c65617374202e3030303231206574682e0000600082015250565b6000610ce6601e83610ba6565b9150610cf182610cb0565b602082019050919050565b60006020820190508181036000830152610d1581610cd9565b9050919050565b7f4e487b7100000000000000000000000000000000000000000000000000000000600052601160045260246000fd5b6000610d56826108b6565b9150610d61836108b6565b9250827fffffffffffffffffffffffffffffffffffffffffffffffffffffffffffffffff03821115610d9657610d95610d1c565b5b828201905092915050565b7f4e487b7100000000000000000000000000000000000000000000000000000000600052602260045260246000fd5b60006002820490506001821680610de857607f821691505b60208210811415610dfc57610dfb610da1565b5b5091905056fea2646970667358221220077cb70504f01c070a3325174248ad277e63f6706553d163c63df8ac9b7f178164736f6c634300080a0033",
  "immutableReferences": {},
  "source": "// SPDX-License-Identifier: MIT\npragma solidity >=0.4.22 <0.9.0;\n\ncontract PillowChecking {\n  \n  mapping(address => uint) checkingAccounts;\n  mapping(address => bool) hasAccount;\n  address[] public accountAddresses;\n\n  address pillowSavingsAddress;\n  address thisAddress;\n\n  function setThisAddress() public {\n    thisAddress = msg.sender;\n  }\n\n  function getThisAddress() public view returns(address) {\n    return thisAddress;\n  }\n\n  uint abc;\n  string greeting;\n\n  constructor() {\n    greeting = \"hello\";\n  }\n\n  function getGreeting() public view returns (string memory) {\n    return greeting;\n  }\n\n  function setGreeting(string memory theGreeting) public {\n    greeting = theGreeting;\n  }\n\n\n  function setPillowSavingsAddress(address _address) external {\n    pillowSavingsAddress = _address;\n  }\n  //new comment\n  function getAddress() public view returns (address) {\n    address myAddress = address(this);\n    return myAddress;\n  }\n\n  function getValue() public pure returns (uint) {\n    uint value = 5;\n    return value;\n  }\n\n  function createAccount(uint _savingsGoal) public {\n    \n    //require(!hasAccount[msg.sender]);\n\n    hasAccount[msg.sender] = true;\n    accountAddresses.push(msg.sender);\n\n    PillowSavingss pillowSavingsInstance = PillowSavingss(pillowSavingsAddress);\n    pillowSavingsInstance.createSavingsPlan(msg.sender, _savingsGoal);\n  }\n\n  function deposit() external payable {\n\n    require(hasAccount[msg.sender]);\n\n    if(msg.value < 210000000000000 wei) {\n      revert(\"Must send at least .00021 eth.\"); //this is approximately 1 USD\n    }\n\n    checkingAccounts[msg.sender] += msg.value;\n\n  }\n\n  function withdrawFromChecking(uint withdrawalAmount) private {\n\n    require(hasAccount[msg.sender]);\n\n    //if they are attemping to withdraw more than they currently have in their checking account - revert\n    if (withdrawalAmount > checkingAccounts[msg.sender]) {\n      revert(\"You are attempting to withdraw more than the account balance.\");\n    }\n\n    checkingAccounts[msg.sender] -= withdrawalAmount;\n    //send money to users wallet\n  }\n\n  function withdrawFromSavings(address _savingsAddr) private {\n\n    require(hasAccount[msg.sender]);\n\n    PillowSavingss pillowSavingsInstance = PillowSavingss(_savingsAddr);\n    checkingAccounts[msg.sender] += pillowSavingsInstance.withdraw(msg.sender);\n\n  }\n\n  function balanceFromChecking() public view returns(uint) {\n\n    require(hasAccount[msg.sender]);\n\n    return checkingAccounts[msg.sender];\n  }\n\n  function balanceFromSavings(address _savingsAddr) public view returns(uint) {\n\n    require(hasAccount[msg.sender]);\n\n    PillowSavingss pillowSavingsInstance = PillowSavingss(_savingsAddr);\n    return pillowSavingsInstance.savingsBalance(msg.sender);\n\n  }\n\n  function transferToSavings(address _savingsAddr, uint _transferAmount) private {\n\n    require(hasAccount[msg.sender]);\n    \n    if(_transferAmount > checkingAccounts[msg.sender]) {\n      revert(\"You are attempting to transfer more funds than are currently available in the checking account.\");\n    }\n\n    PillowSavingss pillowSavingsInstance = PillowSavingss(_savingsAddr);\n\n    checkingAccounts[msg.sender] -= _transferAmount;\n    pillowSavingsInstance.transferDeposit(msg.sender, _transferAmount);\n    //address(\"0x82h82hf82hf8h\").transfer(transferAmount);\n    //send the amount to the savings account for this address\n  }\n\n}\n\ninterface PillowSavingss {\n  function transferDeposit(address _msgSender, uint _transferAmount) external;\n  function createSavingsPlan(address _msgSender, uint _savingsGoal) external;\n  function savingsBalance(address _msgSender) view external returns(uint);\n  function withdraw(address _msgSender) external returns(uint);\n}",
  "sourcePath": "/Users/avrsnsMac/Documents/defi_tutorial/pillow/contracts/PillowChecking.sol",
  "compiler": {
    "name": "solc",
    "version": "0.8.10+commit.fc410830.Emscripten.clang"
  },
  "schemaVersion": "3.4.3",
  "updatedAt": "2022-03-04T05:46:00.546Z",
  "networkType": "ethereum",
  "devdoc": {
    "kind": "dev",
    "methods": {},
    "version": 1
  },
  "userdoc": {
    "kind": "user",
    "methods": {},
    "version": 1
  }
}